{"abi":[{"type":"constructor","inputs":[{"name":"_hrManager","type":"address","internalType":"address"}],"stateMutability":"nonpayable"},{"type":"receive","stateMutability":"payable"},{"type":"function","name":"getActiveEmployeeCount","inputs":[],"outputs":[{"name":"","type":"uint256","internalType":"uint256"}],"stateMutability":"view"},{"type":"function","name":"getEmployeeInfo","inputs":[{"name":"employee","type":"address","internalType":"address"}],"outputs":[{"name":"weeklyUsdSalary","type":"uint256","internalType":"uint256"},{"name":"employedSince","type":"uint256","internalType":"uint256"},{"name":"terminatedAt","type":"uint256","internalType":"uint256"}],"stateMutability":"view"},{"type":"function","name":"hrManager","inputs":[],"outputs":[{"name":"","type":"address","internalType":"address"}],"stateMutability":"view"},{"type":"function","name":"registerEmployee","inputs":[{"name":"employee","type":"address","internalType":"address"},{"name":"weeklyUsdSalary","type":"uint256","internalType":"uint256"}],"outputs":[],"stateMutability":"nonpayable"},{"type":"function","name":"salaryAvailable","inputs":[{"name":"employee","type":"address","internalType":"address"}],"outputs":[{"name":"","type":"uint256","internalType":"uint256"}],"stateMutability":"view"},{"type":"function","name":"switchCurrency","inputs":[],"outputs":[],"stateMutability":"nonpayable"},{"type":"function","name":"terminateEmployee","inputs":[{"name":"employee","type":"address","internalType":"address"}],"outputs":[],"stateMutability":"nonpayable"},{"type":"function","name":"withdrawSalary","inputs":[],"outputs":[],"stateMutability":"nonpayable"},{"type":"event","name":"CurrencySwitched","inputs":[{"name":"employee","type":"address","indexed":true,"internalType":"address"},{"name":"isEth","type":"bool","indexed":false,"internalType":"bool"}],"anonymous":false},{"type":"event","name":"EmployeeRegistered","inputs":[{"name":"employee","type":"address","indexed":true,"internalType":"address"},{"name":"weeklyUsdSalary","type":"uint256","indexed":false,"internalType":"uint256"}],"anonymous":false},{"type":"event","name":"EmployeeTerminated","inputs":[{"name":"employee","type":"address","indexed":true,"internalType":"address"}],"anonymous":false},{"type":"event","name":"SalaryWithdrawn","inputs":[{"name":"employee","type":"address","indexed":true,"internalType":"address"},{"name":"isEth","type":"bool","indexed":false,"internalType":"bool"},{"name":"amount","type":"uint256","indexed":false,"internalType":"uint256"}],"anonymous":false},{"type":"error","name":"EmployeeAlreadyRegistered","inputs":[]},{"type":"error","name":"EmployeeNotRegistered","inputs":[]},{"type":"error","name":"NotAuthorized","inputs":[]}],"bytecode":{"object":"0x610100604052348015610010575f5ffd5b5060405161127038038061127083398101604081905261002f9161008c565b60015f556001600160a01b0316608052730b2c639c533813f4aa9d7837caf62653d097ff8560a0527313e3ee699d1909e989722e753853ae30b17e08c560c05273e592427a0aece92de3edee1f18e0157c0586156460e0526100b9565b5f6020828403121561009c575f5ffd5b81516001600160a01b03811681146100b2575f5ffd5b9392505050565b60805160a05160c05160e05161116f6101015f395f8181610c140152610c9d01525f61076601525f610a5901525f81816101d30152818161021c0152610448015261116f5ff3fe60806040526004361061007c575f3560e01c80639005b2c41161004c5780639005b2c414610187578063ca6828971461019b578063d75c7da8146101ba578063dbaf1ff6146101fd575f5ffd5b806309d2c948146100875780635ac09b2b146100aa5780636fa50604146101475780638870319f14610168575f5ffd5b3661008357005b5f5ffd5b348015610092575f5ffd5b506002545b6040519081526020015b60405180910390f35b3480156100b5575f5ffd5b5061012c6100c4366004610e30565b6001600160a01b03165f90815260016020818152604092839020835160c0810185528154808252938201549281018390526002820154948101859052600382015460608201526004820154608082015260059091015460ff16151560a0909101529092909190565b604080519384526020840192909252908201526060016100a1565b348015610152575f5ffd5b50610166610161366004610e30565b610211565b005b348015610173575f5ffd5b50610097610182366004610e30565b61031f565b348015610192575f5ffd5b50610166610401565b3480156101a6575f5ffd5b506101666101b5366004610e50565b61043d565b3480156101c5575f5ffd5b506040516001600160a01b037f00000000000000000000000000000000000000000000000000000000000000001681526020016100a1565b348015610208575f5ffd5b506101666105d0565b336001600160a01b037f0000000000000000000000000000000000000000000000000000000000000000161461025a5760405163ea8e4eb560e01b815260040160405180910390fd5b6001600160a01b0381165f9081526001602081905260409091209081015415806102875750600281015415155b156102a55760405163552ca72960e11b815260040160405180910390fd5b6102ae826106a4565b816003015f8282546102c09190610e8c565b909155505042600280830182905560048301919091558054905f6102e383610ea5565b90915550506040516001600160a01b038316907f021486dfbd7f040ab70e45ec6effb9c9d32f2dd193871c6bf768d97dc277d7d0905f90a25050565b6001600160a01b0381165f908152600160208181526040808420815160c081018352815481529381015492840183905260028101549184019190915260038101546060840152600481015460808401526005015460ff16151560a0830152820361038b57505f92915050565b5f610395846106a4565b82606001516103a49190610e8c565b90508160a00151156103e0576103b8610762565b6103c46012600a610f9d565b6103ce9083610fa8565b6103d89190610fbf565b949350505050565b6103ec60066012610fde565b6103f790600a610f9d565b6103d89082610fbf565b335f9081526001602081905260408220015490036104325760405163ea8e4eb560e01b815260040160405180910390fd5b61043b33610847565b565b336001600160a01b037f000000000000000000000000000000000000000000000000000000000000000016146104865760405163ea8e4eb560e01b815260040160405180910390fd5b6001600160a01b0382165f9081526001602081905260409091200154158015906104c857506001600160a01b0382165f90815260016020526040902060020154155b156104e65760405163226744f960e21b815260040160405180910390fd5b6001600160a01b0382165f818152600160208181526040808420600381018054835160c08101855289815242818701818152958201898152606083018481526080840192835260a084018b81529b8b5297899052915185559451968401969096559451600280840191909155935190559051600482015593516005909401805460ff19169415159490941790935582549092909161058383610ff1565b9190505550826001600160a01b03167f8235117616296a5606417b9a4405cbbdc80ae25e515ca1d48fc665c0b6ba66af836040516105c391815260200190565b60405180910390a2505050565b335f908152600160208190526040909120015415806105ff5750335f9081526001602052604090206002015415155b1561061d5760405163ea8e4eb560e01b815260040160405180910390fd5b335f908152600160205260409020600381015415158061064457505f610642336106a4565b115b156106525761065233610847565b60058101805460ff8082161560ff19909216821790925560405191161515815233907fe8c2df869f2d26bf2330e294ee3285d4e3f17bfe1c57cb6113e07d8b1b6ef3a89060200160405180910390a250565b6001600160a01b0381165f908152600160208181526040808420815160c081018352815481529381015492840183905260028101549184019190915260038101546060840152600481015460808401526005015460ff16151560a0830152820361071057505f92915050565b5f81604001515f14610726578160400151610728565b425b90505f82608001518261073b9190610fde565b835190915062093a809061074f9083610fa8565b6107599190610fbf565b95945050505050565b5f5f7f00000000000000000000000000000000000000000000000000000000000000006001600160a01b031663feaf968c6040518163ffffffff1660e01b815260040160a060405180830381865afa1580156107c0573d5f5f3e3d5ffd5b505050506040513d601f19601f820116820180604052508101906107e49190611022565b5050509150505f81136108325760405162461bcd60e51b8152602060048201526011602482015270496e76616c69642045544820707269636560781b60448201526064015b60405180910390fd5b610841816402540be400610fa8565b91505090565b61084f610b5d565b6001600160a01b0381165f90815260016020526040812090610870836106a4565b826003015461087f9190610e8c565b9050805f0361088f575050610b51565b5f6003830155426004830155600582015460ff1615610a0e575f6108b560066012610fde565b6108c090600a610f9d565b6108ca9083610fbf565b90505f6108d682610bb4565b604051632e1a7d4d60e01b8152600481018290529091506006602160991b0190632e1a7d4d906024015f604051808303815f87803b158015610916575f5ffd5b505af1158015610928573d5f5f3e3d5ffd5b505050505f856001600160a01b0316826040515f6040518083038185875af1925050503d805f8114610975576040519150601f19603f3d011682016040523d82523d5f602084013e61097a565b606091505b50509050806109c15760405162461bcd60e51b8152602060048201526013602482015272115512081d1c985b9cd9995c8819985a5b1959606a1b6044820152606401610829565b6040805160018152602081018490526001600160a01b038816917f3a40c2426fae597f255951175f1d1841f6a0ce952ad70d527ac712a836134deb910160405180910390a2505050610b4e565b5f610a1b60066012610fde565b610a2690600a610f9d565b610a309083610fbf565b60405163a9059cbb60e01b81526001600160a01b038681166004830152602482018390529192507f00000000000000000000000000000000000000000000000000000000000000009091169063a9059cbb906044016020604051808303815f875af1158015610aa1573d5f5f3e3d5ffd5b505050506040513d601f19601f82011682018060405250810190610ac59190611070565b610b085760405162461bcd60e51b81526020600482015260146024820152731554d110c81d1c985b9cd9995c8819985a5b195960621b6044820152606401610829565b604080515f8152602081018390526001600160a01b038616917f3a40c2426fae597f255951175f1d1841f6a0ce952ad70d527ac712a836134deb910160405180910390a2505b50505b610b5a60015f55565b50565b60025f5403610bae5760405162461bcd60e51b815260206004820152601f60248201527f5265656e7472616e637947756172643a207265656e7472616e742063616c6c006044820152606401610829565b60025f55565b5f5f610bbe610762565b610bca6012600a610f9d565b610bd49085610fa8565b610bde9190610fbf565b90505f6064610bee836062610fa8565b610bf89190610fbf565b9050610c39730b2c639c533813f4aa9d7837caf62653d097ff857f000000000000000000000000000000000000000000000000000000000000000086610d1a565b6040805161010081018252730b2c639c533813f4aa9d7837caf62653d097ff8581526006602160991b0160208201526101f48183015230606082015242608082015260a0810186905260c081018390525f60e0820152905163414bf38960e01b81527f00000000000000000000000000000000000000000000000000000000000000006001600160a01b03169063414bf38990610cda90849060040161108f565b6020604051808303815f875af1158015610cf6573d5f5f3e3d5ffd5b505050506040513d601f19601f82011682018060405250810190610759919061110c565b604080516001600160a01b038481166024830152604480830185905283518084039091018152606490920183526020820180516001600160e01b031663095ea7b360e01b17905291515f92839290871691610d759190611123565b5f604051808303815f865af19150503d805f8114610dae576040519150601f19603f3d011682016040523d82523d5f602084013e610db3565b606091505b5091509150818015610ddd575080511580610ddd575080806020019051810190610ddd9190611070565b610e0e5760405162461bcd60e51b8152602060048201526002602482015261534160f01b6044820152606401610829565b5050505050565b80356001600160a01b0381168114610e2b575f5ffd5b919050565b5f60208284031215610e40575f5ffd5b610e4982610e15565b9392505050565b5f5f60408385031215610e61575f5ffd5b610e6a83610e15565b946020939093013593505050565b634e487b7160e01b5f52601160045260245ffd5b80820180821115610e9f57610e9f610e78565b92915050565b5f81610eb357610eb3610e78565b505f190190565b6001815b6001841115610ef557808504811115610ed957610ed9610e78565b6001841615610ee757908102905b60019390931c928002610ebe565b935093915050565b5f82610f0b57506001610e9f565b81610f1757505f610e9f565b8160018114610f2d5760028114610f3757610f53565b6001915050610e9f565b60ff841115610f4857610f48610e78565b50506001821b610e9f565b5060208310610133831016604e8410600b8410161715610f76575081810a610e9f565b610f825f198484610eba565b805f1904821115610f9557610f95610e78565b029392505050565b5f610e498383610efd565b8082028115828204841417610e9f57610e9f610e78565b5f82610fd957634e487b7160e01b5f52601260045260245ffd5b500490565b81810381811115610e9f57610e9f610e78565b5f6001820161100257611002610e78565b5060010190565b805169ffffffffffffffffffff81168114610e2b575f5ffd5b5f5f5f5f5f60a08688031215611036575f5ffd5b61103f86611009565b6020870151604088015160608901519297509095509350915061106460808701611009565b90509295509295909350565b5f60208284031215611080575f5ffd5b81518015158114610e49575f5ffd5b81516001600160a01b03908116825260208084015182169083015260408084015162ffffff169083015260608084015191821690830152610100820190506080830151608083015260a083015160a083015260c083015160c083015260e083015161110560e08401826001600160a01b03169052565b5092915050565b5f6020828403121561111c575f5ffd5b5051919050565b5f82518060208501845e5f92019182525091905056fea26469706673582212209e198a1f72bbd1ea384e284f269b50063d06ac6fa15f962c269a86e9baf12f1d64736f6c634300081c0033","linkReferences":{}},"methodIdentifiers":{"getActiveEmployeeCount()":"09d2c948","getEmployeeInfo(address)":"5ac09b2b","hrManager()":"d75c7da8","registerEmployee(address,uint256)":"ca682897","salaryAvailable(address)":"8870319f","switchCurrency()":"dbaf1ff6","terminateEmployee(address)":"6fa50604","withdrawSalary()":"9005b2c4"},"id":29}